{
	"FundMe.sol": {
		"FundMe": {
			"abi": [
				{
					"inputs": [],
					"name": "fund",
					"outputs": [],
					"stateMutability": "payable",
					"type": "function"
				},
				{
					"inputs": [],
					"name": "getLatestPrice",
					"outputs": [
						{
							"internalType": "uint256",
							"name": "",
							"type": "uint256"
						}
					],
					"stateMutability": "view",
					"type": "function"
				},
				{
					"inputs": [],
					"name": "getVersion",
					"outputs": [
						{
							"internalType": "uint256",
							"name": "",
							"type": "uint256"
						}
					],
					"stateMutability": "view",
					"type": "function"
				},
				{
					"inputs": [],
					"name": "minUsd",
					"outputs": [
						{
							"internalType": "uint256",
							"name": "",
							"type": "uint256"
						}
					],
					"stateMutability": "view",
					"type": "function"
				}
			],
			"devdoc": {
				"kind": "dev",
				"methods": {},
				"version": 1
			},
			"evm": {
				"assembly": "    /* \"FundMe.sol\":234:1167  contract FundMe {... */\n  mstore(0x40, 0x80)\n    /* \"FundMe.sol\":279:287  5 * 1e18 */\n  0x4563918244f40000\n    /* \"FundMe.sol\":255:287  uint256 public minUsd = 5 * 1e18 */\n  0x00\n  sstore\n    /* \"FundMe.sol\":234:1167  contract FundMe {... */\n  callvalue\n  dup1\n  iszero\n  tag_1\n  jumpi\n  revert(0x00, 0x00)\ntag_1:\n  pop\n  dataSize(sub_0)\n  dup1\n  dataOffset(sub_0)\n  0x00\n  codecopy\n  0x00\n  return\nstop\n\nsub_0: assembly {\n        /* \"FundMe.sol\":234:1167  contract FundMe {... */\n      mstore(0x40, 0x80)\n      jumpi(tag_1, lt(calldatasize, 0x04))\n      shr(0xe0, calldataload(0x00))\n      dup1\n      0x0d8e6e2c\n      eq\n      tag_2\n      jumpi\n      dup1\n      0x51b80e41\n      eq\n      tag_3\n      jumpi\n      dup1\n      0x8e15f473\n      eq\n      tag_4\n      jumpi\n      dup1\n      0xb60d4288\n      eq\n      tag_5\n      jumpi\n    tag_1:\n      revert(0x00, 0x00)\n        /* \"FundMe.sol\":955:1106  function getVersion () public view returns (uint256) {... */\n    tag_2:\n      callvalue\n      dup1\n      iszero\n      tag_6\n      jumpi\n      revert(0x00, 0x00)\n    tag_6:\n      pop\n      tag_7\n      tag_8\n      jump\t// in\n    tag_7:\n      mload(0x40)\n      tag_9\n      swap2\n      swap1\n      tag_10\n      jump\t// in\n    tag_9:\n      mload(0x40)\n      dup1\n      swap2\n      sub\n      swap1\n      return\n        /* \"FundMe.sol\":255:287  uint256 public minUsd = 5 * 1e18 */\n    tag_3:\n      callvalue\n      dup1\n      iszero\n      tag_11\n      jumpi\n      revert(0x00, 0x00)\n    tag_11:\n      pop\n      tag_12\n      tag_13\n      jump\t// in\n    tag_12:\n      mload(0x40)\n      tag_14\n      swap2\n      swap1\n      tag_10\n      jump\t// in\n    tag_14:\n      mload(0x40)\n      dup1\n      swap2\n      sub\n      swap1\n      return\n        /* \"FundMe.sol\":446:708  function getLatestPrice() public view returns (uint256) {... */\n    tag_4:\n      callvalue\n      dup1\n      iszero\n      tag_15\n      jumpi\n      revert(0x00, 0x00)\n    tag_15:\n      pop\n      tag_16\n      tag_17\n      jump\t// in\n    tag_16:\n      mload(0x40)\n      tag_18\n      swap2\n      swap1\n      tag_10\n      jump\t// in\n    tag_18:\n      mload(0x40)\n      dup1\n      swap2\n      sub\n      swap1\n      return\n        /* \"FundMe.sol\":296:435  function fund() public payable  {... */\n    tag_5:\n      tag_19\n      tag_20\n      jump\t// in\n    tag_19:\n      stop\n        /* \"FundMe.sol\":955:1106  function getVersion () public view returns (uint256) {... */\n    tag_8:\n        /* \"FundMe.sol\":999:1006  uint256 */\n      0x00\n        /* \"FundMe.sol\":1046:1088  0x694AA1769357215DE4FAC081bf1f309aDC325306 */\n      0x694aa1769357215de4fac081bf1f309adc325306\n        /* \"FundMe.sol\":1024:1097  AggregatorV3Interface(0x694AA1769357215DE4FAC081bf1f309aDC325306).version */\n      0xffffffffffffffffffffffffffffffffffffffff\n      and\n      0x54fd4d50\n        /* \"FundMe.sol\":1024:1099  AggregatorV3Interface(0x694AA1769357215DE4FAC081bf1f309aDC325306).version() */\n      mload(0x40)\n      dup2\n      0xffffffff\n      and\n      0xe0\n      shl\n      dup2\n      mstore\n      0x04\n      add\n      0x20\n      mload(0x40)\n      dup1\n      dup4\n      sub\n      dup2\n      dup7\n      gas\n      staticcall\n      iszero\n      dup1\n      iszero\n      tag_23\n      jumpi\n      returndatacopy(0x00, 0x00, returndatasize)\n      revert(0x00, returndatasize)\n    tag_23:\n      pop\n      pop\n      pop\n      pop\n      mload(0x40)\n      returndatasize\n      not(0x1f)\n      0x1f\n      dup3\n      add\n      and\n      dup3\n      add\n      dup1\n      0x40\n      mstore\n      pop\n      dup2\n      add\n      swap1\n      tag_24\n      swap2\n      swap1\n      tag_25\n      jump\t// in\n    tag_24:\n        /* \"FundMe.sol\":1017:1099  return AggregatorV3Interface(0x694AA1769357215DE4FAC081bf1f309aDC325306).version() */\n      swap1\n      pop\n        /* \"FundMe.sol\":955:1106  function getVersion () public view returns (uint256) {... */\n      swap1\n      jump\t// out\n        /* \"FundMe.sol\":255:287  uint256 public minUsd = 5 * 1e18 */\n    tag_13:\n      sload(0x00)\n      dup2\n      jump\t// out\n        /* \"FundMe.sol\":446:708  function getLatestPrice() public view returns (uint256) {... */\n    tag_17:\n        /* \"FundMe.sol\":493:500  uint256 */\n      0x00\n        /* \"FundMe.sol\":511:542  AggregatorV3Interface priceFeed */\n      0x00\n        /* \"FundMe.sol\":567:609  0x694AA1769357215DE4FAC081bf1f309aDC325306 */\n      0x694aa1769357215de4fac081bf1f309adc325306\n        /* \"FundMe.sol\":511:610  AggregatorV3Interface priceFeed = AggregatorV3Interface(0x694AA1769357215DE4FAC081bf1f309aDC325306) */\n      swap1\n      pop\n        /* \"FundMe.sol\":623:633  int answer */\n      0x00\n        /* \"FundMe.sol\":640:649  priceFeed */\n      dup2\n        /* \"FundMe.sol\":640:665  priceFeed.latestRoundData */\n      0xffffffffffffffffffffffffffffffffffffffff\n      and\n      0xfeaf968c\n        /* \"FundMe.sol\":640:667  priceFeed.latestRoundData() */\n      mload(0x40)\n      dup2\n      0xffffffff\n      and\n      0xe0\n      shl\n      dup2\n      mstore\n      0x04\n      add\n      0xa0\n      mload(0x40)\n      dup1\n      dup4\n      sub\n      dup2\n      dup7\n      gas\n      staticcall\n      iszero\n      dup1\n      iszero\n      tag_28\n      jumpi\n      returndatacopy(0x00, 0x00, returndatasize)\n      revert(0x00, returndatasize)\n    tag_28:\n      pop\n      pop\n      pop\n      pop\n      mload(0x40)\n      returndatasize\n      not(0x1f)\n      0x1f\n      dup3\n      add\n      and\n      dup3\n      add\n      dup1\n      0x40\n      mstore\n      pop\n      dup2\n      add\n      swap1\n      tag_29\n      swap2\n      swap1\n      tag_30\n      jump\t// in\n    tag_29:\n        /* \"FundMe.sol\":621:667  (,int answer,,,) = priceFeed.latestRoundData() */\n      pop\n      pop\n      pop\n      swap2\n      pop\n      pop\n        /* \"FundMe.sol\":700:704  1e10 */\n      0x02540be400\n        /* \"FundMe.sol\":690:696  answer */\n      dup2\n        /* \"FundMe.sol\":685:704  uint(answer) * 1e10 */\n      tag_31\n      swap2\n      swap1\n      tag_32\n      jump\t// in\n    tag_31:\n        /* \"FundMe.sol\":678:704  return uint(answer) * 1e10 */\n      swap3\n      pop\n      pop\n      pop\n        /* \"FundMe.sol\":446:708  function getLatestPrice() public view returns (uint256) {... */\n      swap1\n      jump\t// out\n        /* \"FundMe.sol\":296:435  function fund() public payable  {... */\n    tag_20:\n        /* \"FundMe.sol\":387:393  minUsd */\n      sload(0x00)\n        /* \"FundMe.sol\":355:383  getConversionRate(msg.value) */\n      tag_34\n        /* \"FundMe.sol\":373:382  msg.value */\n      callvalue\n        /* \"FundMe.sol\":355:372  getConversionRate */\n      tag_35\n        /* \"FundMe.sol\":355:383  getConversionRate(msg.value) */\n      jump\t// in\n    tag_34:\n        /* \"FundMe.sol\":355:393  getConversionRate(msg.value) >= minUsd */\n      lt\n      iszero\n        /* \"FundMe.sol\":347:419  require(getConversionRate(msg.value) >= minUsd,\"Amount sent is to low!\") */\n      tag_36\n      jumpi\n      mload(0x40)\n      0x08c379a000000000000000000000000000000000000000000000000000000000\n      dup2\n      mstore\n      0x04\n      add\n      tag_37\n      swap1\n      tag_38\n      jump\t// in\n    tag_37:\n      mload(0x40)\n      dup1\n      swap2\n      sub\n      swap1\n      revert\n    tag_36:\n        /* \"FundMe.sol\":296:435  function fund() public payable  {... */\n      jump\t// out\n        /* \"FundMe.sol\":724:948  function getConversionRate(uint256 ethAmount) internal view returns (uint256)     {... */\n    tag_35:\n        /* \"FundMe.sol\":793:800  uint256 */\n      0x00\n        /* \"FundMe.sol\":815:831  uint256 ethPrice */\n      0x00\n        /* \"FundMe.sol\":833:849  getLatestPrice() */\n      tag_40\n        /* \"FundMe.sol\":833:847  getLatestPrice */\n      tag_17\n        /* \"FundMe.sol\":833:849  getLatestPrice() */\n      jump\t// in\n    tag_40:\n        /* \"FundMe.sol\":815:849  uint256 ethPrice =getLatestPrice() */\n      swap1\n      pop\n        /* \"FundMe.sol\":858:880  uint256 ethAmountInUsd */\n      0x00\n        /* \"FundMe.sol\":907:911  1e18 */\n      0x0de0b6b3a7640000\n        /* \"FundMe.sol\":894:903  ethAmount */\n      dup5\n        /* \"FundMe.sol\":883:891  ethPrice */\n      dup4\n        /* \"FundMe.sol\":883:903  ethPrice * ethAmount */\n      tag_41\n      swap2\n      swap1\n      tag_32\n      jump\t// in\n    tag_41:\n        /* \"FundMe.sol\":882:911  (ethPrice * ethAmount) / 1e18 */\n      tag_42\n      swap2\n      swap1\n      tag_43\n      jump\t// in\n    tag_42:\n        /* \"FundMe.sol\":858:911  uint256 ethAmountInUsd =(ethPrice * ethAmount) / 1e18 */\n      swap1\n      pop\n        /* \"FundMe.sol\":927:941  ethAmountInUsd */\n      dup1\n        /* \"FundMe.sol\":920:941  return ethAmountInUsd */\n      swap3\n      pop\n      pop\n      pop\n        /* \"FundMe.sol\":724:948  function getConversionRate(uint256 ethAmount) internal view returns (uint256)     {... */\n      swap2\n      swap1\n      pop\n      jump\t// out\n        /* \"#utility.yul\":7:84   */\n    tag_44:\n        /* \"#utility.yul\":44:51   */\n      0x00\n        /* \"#utility.yul\":73:78   */\n      dup2\n        /* \"#utility.yul\":62:78   */\n      swap1\n      pop\n        /* \"#utility.yul\":7:84   */\n      swap2\n      swap1\n      pop\n      jump\t// out\n        /* \"#utility.yul\":90:208   */\n    tag_45:\n        /* \"#utility.yul\":177:201   */\n      tag_65\n        /* \"#utility.yul\":195:200   */\n      dup2\n        /* \"#utility.yul\":177:201   */\n      tag_44\n      jump\t// in\n    tag_65:\n        /* \"#utility.yul\":172:175   */\n      dup3\n        /* \"#utility.yul\":165:202   */\n      mstore\n        /* \"#utility.yul\":90:208   */\n      pop\n      pop\n      jump\t// out\n        /* \"#utility.yul\":214:436   */\n    tag_10:\n        /* \"#utility.yul\":307:311   */\n      0x00\n        /* \"#utility.yul\":345:347   */\n      0x20\n        /* \"#utility.yul\":334:343   */\n      dup3\n        /* \"#utility.yul\":330:348   */\n      add\n        /* \"#utility.yul\":322:348   */\n      swap1\n      pop\n        /* \"#utility.yul\":358:429   */\n      tag_67\n        /* \"#utility.yul\":426:427   */\n      0x00\n        /* \"#utility.yul\":415:424   */\n      dup4\n        /* \"#utility.yul\":411:428   */\n      add\n        /* \"#utility.yul\":402:408   */\n      dup5\n        /* \"#utility.yul\":358:429   */\n      tag_45\n      jump\t// in\n    tag_67:\n        /* \"#utility.yul\":214:436   */\n      swap3\n      swap2\n      pop\n      pop\n      jump\t// out\n        /* \"#utility.yul\":523:640   */\n    tag_47:\n        /* \"#utility.yul\":632:633   */\n      0x00\n        /* \"#utility.yul\":629:630   */\n      0x00\n        /* \"#utility.yul\":622:634   */\n      revert\n        /* \"#utility.yul\":769:891   */\n    tag_49:\n        /* \"#utility.yul\":842:866   */\n      tag_72\n        /* \"#utility.yul\":860:865   */\n      dup2\n        /* \"#utility.yul\":842:866   */\n      tag_44\n      jump\t// in\n    tag_72:\n        /* \"#utility.yul\":835:840   */\n      dup2\n        /* \"#utility.yul\":832:867   */\n      eq\n        /* \"#utility.yul\":822:885   */\n      tag_73\n      jumpi\n        /* \"#utility.yul\":881:882   */\n      0x00\n        /* \"#utility.yul\":878:879   */\n      0x00\n        /* \"#utility.yul\":871:883   */\n      revert\n        /* \"#utility.yul\":822:885   */\n    tag_73:\n        /* \"#utility.yul\":769:891   */\n      pop\n      jump\t// out\n        /* \"#utility.yul\":897:1040   */\n    tag_50:\n        /* \"#utility.yul\":954:959   */\n      0x00\n        /* \"#utility.yul\":985:991   */\n      dup2\n        /* \"#utility.yul\":979:992   */\n      mload\n        /* \"#utility.yul\":970:992   */\n      swap1\n      pop\n        /* \"#utility.yul\":1001:1034   */\n      tag_75\n        /* \"#utility.yul\":1028:1033   */\n      dup2\n        /* \"#utility.yul\":1001:1034   */\n      tag_49\n      jump\t// in\n    tag_75:\n        /* \"#utility.yul\":897:1040   */\n      swap3\n      swap2\n      pop\n      pop\n      jump\t// out\n        /* \"#utility.yul\":1046:1397   */\n    tag_25:\n        /* \"#utility.yul\":1116:1122   */\n      0x00\n        /* \"#utility.yul\":1165:1167   */\n      0x20\n        /* \"#utility.yul\":1153:1162   */\n      dup3\n        /* \"#utility.yul\":1144:1151   */\n      dup5\n        /* \"#utility.yul\":1140:1163   */\n      sub\n        /* \"#utility.yul\":1136:1168   */\n      slt\n        /* \"#utility.yul\":1133:1252   */\n      iszero\n      tag_77\n      jumpi\n        /* \"#utility.yul\":1171:1250   */\n      tag_78\n      tag_47\n      jump\t// in\n    tag_78:\n        /* \"#utility.yul\":1133:1252   */\n    tag_77:\n        /* \"#utility.yul\":1291:1292   */\n      0x00\n        /* \"#utility.yul\":1316:1380   */\n      tag_79\n        /* \"#utility.yul\":1372:1379   */\n      dup5\n        /* \"#utility.yul\":1363:1369   */\n      dup3\n        /* \"#utility.yul\":1352:1361   */\n      dup6\n        /* \"#utility.yul\":1348:1370   */\n      add\n        /* \"#utility.yul\":1316:1380   */\n      tag_50\n      jump\t// in\n    tag_79:\n        /* \"#utility.yul\":1306:1380   */\n      swap2\n      pop\n        /* \"#utility.yul\":1262:1390   */\n      pop\n        /* \"#utility.yul\":1046:1397   */\n      swap3\n      swap2\n      pop\n      pop\n      jump\t// out\n        /* \"#utility.yul\":1403:1508   */\n    tag_51:\n        /* \"#utility.yul\":1439:1446   */\n      0x00\n        /* \"#utility.yul\":1479:1501   */\n      0xffffffffffffffffffff\n        /* \"#utility.yul\":1472:1477   */\n      dup3\n        /* \"#utility.yul\":1468:1502   */\n      and\n        /* \"#utility.yul\":1457:1502   */\n      swap1\n      pop\n        /* \"#utility.yul\":1403:1508   */\n      swap2\n      swap1\n      pop\n      jump\t// out\n        /* \"#utility.yul\":1514:1634   */\n    tag_52:\n        /* \"#utility.yul\":1586:1609   */\n      tag_82\n        /* \"#utility.yul\":1603:1608   */\n      dup2\n        /* \"#utility.yul\":1586:1609   */\n      tag_51\n      jump\t// in\n    tag_82:\n        /* \"#utility.yul\":1579:1584   */\n      dup2\n        /* \"#utility.yul\":1576:1610   */\n      eq\n        /* \"#utility.yul\":1566:1628   */\n      tag_83\n      jumpi\n        /* \"#utility.yul\":1624:1625   */\n      0x00\n        /* \"#utility.yul\":1621:1622   */\n      0x00\n        /* \"#utility.yul\":1614:1626   */\n      revert\n        /* \"#utility.yul\":1566:1628   */\n    tag_83:\n        /* \"#utility.yul\":1514:1634   */\n      pop\n      jump\t// out\n        /* \"#utility.yul\":1640:1781   */\n    tag_53:\n        /* \"#utility.yul\":1696:1701   */\n      0x00\n        /* \"#utility.yul\":1727:1733   */\n      dup2\n        /* \"#utility.yul\":1721:1734   */\n      mload\n        /* \"#utility.yul\":1712:1734   */\n      swap1\n      pop\n        /* \"#utility.yul\":1743:1775   */\n      tag_85\n        /* \"#utility.yul\":1769:1774   */\n      dup2\n        /* \"#utility.yul\":1743:1775   */\n      tag_52\n      jump\t// in\n    tag_85:\n        /* \"#utility.yul\":1640:1781   */\n      swap3\n      swap2\n      pop\n      pop\n      jump\t// out\n        /* \"#utility.yul\":1787:1863   */\n    tag_54:\n        /* \"#utility.yul\":1823:1830   */\n      0x00\n        /* \"#utility.yul\":1852:1857   */\n      dup2\n        /* \"#utility.yul\":1841:1857   */\n      swap1\n      pop\n        /* \"#utility.yul\":1787:1863   */\n      swap2\n      swap1\n      pop\n      jump\t// out\n        /* \"#utility.yul\":1869:1989   */\n    tag_55:\n        /* \"#utility.yul\":1941:1964   */\n      tag_88\n        /* \"#utility.yul\":1958:1963   */\n      dup2\n        /* \"#utility.yul\":1941:1964   */\n      tag_54\n      jump\t// in\n    tag_88:\n        /* \"#utility.yul\":1934:1939   */\n      dup2\n        /* \"#utility.yul\":1931:1965   */\n      eq\n        /* \"#utility.yul\":1921:1983   */\n      tag_89\n      jumpi\n        /* \"#utility.yul\":1979:1980   */\n      0x00\n        /* \"#utility.yul\":1976:1977   */\n      0x00\n        /* \"#utility.yul\":1969:1981   */\n      revert\n        /* \"#utility.yul\":1921:1983   */\n    tag_89:\n        /* \"#utility.yul\":1869:1989   */\n      pop\n      jump\t// out\n        /* \"#utility.yul\":1995:2136   */\n    tag_56:\n        /* \"#utility.yul\":2051:2056   */\n      0x00\n        /* \"#utility.yul\":2082:2088   */\n      dup2\n        /* \"#utility.yul\":2076:2089   */\n      mload\n        /* \"#utility.yul\":2067:2089   */\n      swap1\n      pop\n        /* \"#utility.yul\":2098:2130   */\n      tag_91\n        /* \"#utility.yul\":2124:2129   */\n      dup2\n        /* \"#utility.yul\":2098:2130   */\n      tag_55\n      jump\t// in\n    tag_91:\n        /* \"#utility.yul\":1995:2136   */\n      swap3\n      swap2\n      pop\n      pop\n      jump\t// out\n        /* \"#utility.yul\":2142:3113   */\n    tag_30:\n        /* \"#utility.yul\":2245:2251   */\n      0x00\n        /* \"#utility.yul\":2253:2259   */\n      0x00\n        /* \"#utility.yul\":2261:2267   */\n      0x00\n        /* \"#utility.yul\":2269:2275   */\n      0x00\n        /* \"#utility.yul\":2277:2283   */\n      0x00\n        /* \"#utility.yul\":2326:2329   */\n      0xa0\n        /* \"#utility.yul\":2314:2323   */\n      dup7\n        /* \"#utility.yul\":2305:2312   */\n      dup9\n        /* \"#utility.yul\":2301:2324   */\n      sub\n        /* \"#utility.yul\":2297:2330   */\n      slt\n        /* \"#utility.yul\":2294:2414   */\n      iszero\n      tag_93\n      jumpi\n        /* \"#utility.yul\":2333:2412   */\n      tag_94\n      tag_47\n      jump\t// in\n    tag_94:\n        /* \"#utility.yul\":2294:2414   */\n    tag_93:\n        /* \"#utility.yul\":2453:2454   */\n      0x00\n        /* \"#utility.yul\":2478:2541   */\n      tag_95\n        /* \"#utility.yul\":2533:2540   */\n      dup9\n        /* \"#utility.yul\":2524:2530   */\n      dup3\n        /* \"#utility.yul\":2513:2522   */\n      dup10\n        /* \"#utility.yul\":2509:2531   */\n      add\n        /* \"#utility.yul\":2478:2541   */\n      tag_53\n      jump\t// in\n    tag_95:\n        /* \"#utility.yul\":2468:2541   */\n      swap6\n      pop\n        /* \"#utility.yul\":2424:2551   */\n      pop\n        /* \"#utility.yul\":2590:2592   */\n      0x20\n        /* \"#utility.yul\":2616:2679   */\n      tag_96\n        /* \"#utility.yul\":2671:2678   */\n      dup9\n        /* \"#utility.yul\":2662:2668   */\n      dup3\n        /* \"#utility.yul\":2651:2660   */\n      dup10\n        /* \"#utility.yul\":2647:2669   */\n      add\n        /* \"#utility.yul\":2616:2679   */\n      tag_56\n      jump\t// in\n    tag_96:\n        /* \"#utility.yul\":2606:2679   */\n      swap5\n      pop\n        /* \"#utility.yul\":2561:2689   */\n      pop\n        /* \"#utility.yul\":2728:2730   */\n      0x40\n        /* \"#utility.yul\":2754:2818   */\n      tag_97\n        /* \"#utility.yul\":2810:2817   */\n      dup9\n        /* \"#utility.yul\":2801:2807   */\n      dup3\n        /* \"#utility.yul\":2790:2799   */\n      dup10\n        /* \"#utility.yul\":2786:2808   */\n      add\n        /* \"#utility.yul\":2754:2818   */\n      tag_50\n      jump\t// in\n    tag_97:\n        /* \"#utility.yul\":2744:2818   */\n      swap4\n      pop\n        /* \"#utility.yul\":2699:2828   */\n      pop\n        /* \"#utility.yul\":2867:2869   */\n      0x60\n        /* \"#utility.yul\":2893:2957   */\n      tag_98\n        /* \"#utility.yul\":2949:2956   */\n      dup9\n        /* \"#utility.yul\":2940:2946   */\n      dup3\n        /* \"#utility.yul\":2929:2938   */\n      dup10\n        /* \"#utility.yul\":2925:2947   */\n      add\n        /* \"#utility.yul\":2893:2957   */\n      tag_50\n      jump\t// in\n    tag_98:\n        /* \"#utility.yul\":2883:2957   */\n      swap3\n      pop\n        /* \"#utility.yul\":2838:2967   */\n      pop\n        /* \"#utility.yul\":3006:3009   */\n      0x80\n        /* \"#utility.yul\":3033:3096   */\n      tag_99\n        /* \"#utility.yul\":3088:3095   */\n      dup9\n        /* \"#utility.yul\":3079:3085   */\n      dup3\n        /* \"#utility.yul\":3068:3077   */\n      dup10\n        /* \"#utility.yul\":3064:3086   */\n      add\n        /* \"#utility.yul\":3033:3096   */\n      tag_53\n      jump\t// in\n    tag_99:\n        /* \"#utility.yul\":3023:3096   */\n      swap2\n      pop\n        /* \"#utility.yul\":2977:3106   */\n      pop\n        /* \"#utility.yul\":2142:3113   */\n      swap3\n      swap6\n      pop\n      swap3\n      swap6\n      swap1\n      swap4\n      pop\n      jump\t// out\n        /* \"#utility.yul\":3119:3299   */\n    tag_57:\n        /* \"#utility.yul\":3167:3244   */\n      0x4e487b7100000000000000000000000000000000000000000000000000000000\n        /* \"#utility.yul\":3164:3165   */\n      0x00\n        /* \"#utility.yul\":3157:3245   */\n      mstore\n        /* \"#utility.yul\":3264:3268   */\n      0x11\n        /* \"#utility.yul\":3261:3262   */\n      0x04\n        /* \"#utility.yul\":3254:3269   */\n      mstore\n        /* \"#utility.yul\":3288:3292   */\n      0x24\n        /* \"#utility.yul\":3285:3286   */\n      0x00\n        /* \"#utility.yul\":3278:3293   */\n      revert\n        /* \"#utility.yul\":3305:3715   */\n    tag_32:\n        /* \"#utility.yul\":3345:3352   */\n      0x00\n        /* \"#utility.yul\":3368:3388   */\n      tag_102\n        /* \"#utility.yul\":3386:3387   */\n      dup3\n        /* \"#utility.yul\":3368:3388   */\n      tag_44\n      jump\t// in\n    tag_102:\n        /* \"#utility.yul\":3363:3388   */\n      swap2\n      pop\n        /* \"#utility.yul\":3402:3422   */\n      tag_103\n        /* \"#utility.yul\":3420:3421   */\n      dup4\n        /* \"#utility.yul\":3402:3422   */\n      tag_44\n      jump\t// in\n    tag_103:\n        /* \"#utility.yul\":3397:3422   */\n      swap3\n      pop\n        /* \"#utility.yul\":3457:3458   */\n      dup3\n        /* \"#utility.yul\":3454:3455   */\n      dup3\n        /* \"#utility.yul\":3450:3459   */\n      mul\n        /* \"#utility.yul\":3479:3509   */\n      tag_104\n        /* \"#utility.yul\":3497:3508   */\n      dup2\n        /* \"#utility.yul\":3479:3509   */\n      tag_44\n      jump\t// in\n    tag_104:\n        /* \"#utility.yul\":3468:3509   */\n      swap2\n      pop\n        /* \"#utility.yul\":3658:3659   */\n      dup3\n        /* \"#utility.yul\":3649:3656   */\n      dup3\n        /* \"#utility.yul\":3645:3660   */\n      div\n        /* \"#utility.yul\":3642:3643   */\n      dup5\n        /* \"#utility.yul\":3639:3661   */\n      eq\n        /* \"#utility.yul\":3619:3620   */\n      dup4\n        /* \"#utility.yul\":3612:3621   */\n      iszero\n        /* \"#utility.yul\":3592:3675   */\n      or\n        /* \"#utility.yul\":3569:3708   */\n      tag_105\n      jumpi\n        /* \"#utility.yul\":3688:3706   */\n      tag_106\n      tag_57\n      jump\t// in\n    tag_106:\n        /* \"#utility.yul\":3569:3708   */\n    tag_105:\n        /* \"#utility.yul\":3353:3715   */\n      pop\n        /* \"#utility.yul\":3305:3715   */\n      swap3\n      swap2\n      pop\n      pop\n      jump\t// out\n        /* \"#utility.yul\":3721:3890   */\n    tag_58:\n        /* \"#utility.yul\":3805:3816   */\n      0x00\n        /* \"#utility.yul\":3839:3845   */\n      dup3\n        /* \"#utility.yul\":3834:3837   */\n      dup3\n        /* \"#utility.yul\":3827:3846   */\n      mstore\n        /* \"#utility.yul\":3879:3883   */\n      0x20\n        /* \"#utility.yul\":3874:3877   */\n      dup3\n        /* \"#utility.yul\":3870:3884   */\n      add\n        /* \"#utility.yul\":3855:3884   */\n      swap1\n      pop\n        /* \"#utility.yul\":3721:3890   */\n      swap3\n      swap2\n      pop\n      pop\n      jump\t// out\n        /* \"#utility.yul\":3896:4068   */\n    tag_59:\n        /* \"#utility.yul\":4036:4060   */\n      0x416d6f756e742073656e7420697320746f206c6f772100000000000000000000\n        /* \"#utility.yul\":4032:4033   */\n      0x00\n        /* \"#utility.yul\":4024:4030   */\n      dup3\n        /* \"#utility.yul\":4020:4034   */\n      add\n        /* \"#utility.yul\":4013:4061   */\n      mstore\n        /* \"#utility.yul\":3896:4068   */\n      pop\n      jump\t// out\n        /* \"#utility.yul\":4074:4440   */\n    tag_60:\n        /* \"#utility.yul\":4216:4219   */\n      0x00\n        /* \"#utility.yul\":4237:4304   */\n      tag_110\n        /* \"#utility.yul\":4301:4303   */\n      0x16\n        /* \"#utility.yul\":4296:4299   */\n      dup4\n        /* \"#utility.yul\":4237:4304   */\n      tag_58\n      jump\t// in\n    tag_110:\n        /* \"#utility.yul\":4230:4304   */\n      swap2\n      pop\n        /* \"#utility.yul\":4313:4406   */\n      tag_111\n        /* \"#utility.yul\":4402:4405   */\n      dup3\n        /* \"#utility.yul\":4313:4406   */\n      tag_59\n      jump\t// in\n    tag_111:\n        /* \"#utility.yul\":4431:4433   */\n      0x20\n        /* \"#utility.yul\":4426:4429   */\n      dup3\n        /* \"#utility.yul\":4422:4434   */\n      add\n        /* \"#utility.yul\":4415:4434   */\n      swap1\n      pop\n        /* \"#utility.yul\":4074:4440   */\n      swap2\n      swap1\n      pop\n      jump\t// out\n        /* \"#utility.yul\":4446:4865   */\n    tag_38:\n        /* \"#utility.yul\":4612:4616   */\n      0x00\n        /* \"#utility.yul\":4650:4652   */\n      0x20\n        /* \"#utility.yul\":4639:4648   */\n      dup3\n        /* \"#utility.yul\":4635:4653   */\n      add\n        /* \"#utility.yul\":4627:4653   */\n      swap1\n      pop\n        /* \"#utility.yul\":4699:4708   */\n      dup2\n        /* \"#utility.yul\":4693:4697   */\n      dup2\n        /* \"#utility.yul\":4689:4709   */\n      sub\n        /* \"#utility.yul\":4685:4686   */\n      0x00\n        /* \"#utility.yul\":4674:4683   */\n      dup4\n        /* \"#utility.yul\":4670:4687   */\n      add\n        /* \"#utility.yul\":4663:4710   */\n      mstore\n        /* \"#utility.yul\":4727:4858   */\n      tag_113\n        /* \"#utility.yul\":4853:4857   */\n      dup2\n        /* \"#utility.yul\":4727:4858   */\n      tag_60\n      jump\t// in\n    tag_113:\n        /* \"#utility.yul\":4719:4858   */\n      swap1\n      pop\n        /* \"#utility.yul\":4446:4865   */\n      swap2\n      swap1\n      pop\n      jump\t// out\n        /* \"#utility.yul\":4871:5051   */\n    tag_61:\n        /* \"#utility.yul\":4919:4996   */\n      0x4e487b7100000000000000000000000000000000000000000000000000000000\n        /* \"#utility.yul\":4916:4917   */\n      0x00\n        /* \"#utility.yul\":4909:4997   */\n      mstore\n        /* \"#utility.yul\":5016:5020   */\n      0x12\n        /* \"#utility.yul\":5013:5014   */\n      0x04\n        /* \"#utility.yul\":5006:5021   */\n      mstore\n        /* \"#utility.yul\":5040:5044   */\n      0x24\n        /* \"#utility.yul\":5037:5038   */\n      0x00\n        /* \"#utility.yul\":5030:5045   */\n      revert\n        /* \"#utility.yul\":5057:5242   */\n    tag_43:\n        /* \"#utility.yul\":5097:5098   */\n      0x00\n        /* \"#utility.yul\":5114:5134   */\n      tag_116\n        /* \"#utility.yul\":5132:5133   */\n      dup3\n        /* \"#utility.yul\":5114:5134   */\n      tag_44\n      jump\t// in\n    tag_116:\n        /* \"#utility.yul\":5109:5134   */\n      swap2\n      pop\n        /* \"#utility.yul\":5148:5168   */\n      tag_117\n        /* \"#utility.yul\":5166:5167   */\n      dup4\n        /* \"#utility.yul\":5148:5168   */\n      tag_44\n      jump\t// in\n    tag_117:\n        /* \"#utility.yul\":5143:5168   */\n      swap3\n      pop\n        /* \"#utility.yul\":5187:5188   */\n      dup3\n        /* \"#utility.yul\":5177:5212   */\n      tag_118\n      jumpi\n        /* \"#utility.yul\":5192:5210   */\n      tag_119\n      tag_61\n      jump\t// in\n    tag_119:\n        /* \"#utility.yul\":5177:5212   */\n    tag_118:\n        /* \"#utility.yul\":5234:5235   */\n      dup3\n        /* \"#utility.yul\":5231:5232   */\n      dup3\n        /* \"#utility.yul\":5227:5236   */\n      div\n        /* \"#utility.yul\":5222:5236   */\n      swap1\n      pop\n        /* \"#utility.yul\":5057:5242   */\n      swap3\n      swap2\n      pop\n      pop\n      jump\t// out\n\n    auxdata: 0xa26469706673582212206fc86ba8aab5475e03401825b03038d55cb1461a27de74c7a6ab783c5ec1d07164736f6c634300081c0033\n}\n",
				"bytecode": {
					"linkReferences": {},
					"object": "6080604052674563918244f400005f553480156019575f5ffd5b5061056d806100275f395ff3fe60806040526004361061003e575f3560e01c80630d8e6e2c1461004257806351b80e411461006c5780638e15f47314610096578063b60d4288146100c0575b5f5ffd5b34801561004d575f5ffd5b506100566100ca565b6040516100639190610299565b60405180910390f35b348015610077575f5ffd5b50610080610151565b60405161008d9190610299565b60405180910390f35b3480156100a1575f5ffd5b506100aa610156565b6040516100b79190610299565b60405180910390f35b6100c86101fb565b005b5f73694aa1769357215de4fac081bf1f309adc32530673ffffffffffffffffffffffffffffffffffffffff166354fd4d506040518163ffffffff1660e01b8152600401602060405180830381865afa158015610128573d5f5f3e3d5ffd5b505050506040513d601f19601f8201168201806040525081019061014c91906102e0565b905090565b5f5481565b5f5f73694aa1769357215de4fac081bf1f309adc32530690505f8173ffffffffffffffffffffffffffffffffffffffff1663feaf968c6040518163ffffffff1660e01b815260040160a060405180830381865afa1580156101b9573d5f5f3e3d5ffd5b505050506040513d601f19601f820116820180604052508101906101dd919061037d565b5050509150506402540be400816101f49190610421565b9250505090565b5f5461020634610249565b1015610247576040517f08c379a000000000000000000000000000000000000000000000000000000000815260040161023e906104bc565b60405180910390fd5b565b5f5f610253610156565b90505f670de0b6b3a7640000848361026b9190610421565b6102759190610507565b90508092505050919050565b5f819050919050565b61029381610281565b82525050565b5f6020820190506102ac5f83018461028a565b92915050565b5f5ffd5b6102bf81610281565b81146102c9575f5ffd5b50565b5f815190506102da816102b6565b92915050565b5f602082840312156102f5576102f46102b2565b5b5f610302848285016102cc565b91505092915050565b5f69ffffffffffffffffffff82169050919050565b6103298161030b565b8114610333575f5ffd5b50565b5f8151905061034481610320565b92915050565b5f819050919050565b61035c8161034a565b8114610366575f5ffd5b50565b5f8151905061037781610353565b92915050565b5f5f5f5f5f60a08688031215610396576103956102b2565b5b5f6103a388828901610336565b95505060206103b488828901610369565b94505060406103c5888289016102cc565b93505060606103d6888289016102cc565b92505060806103e788828901610336565b9150509295509295909350565b7f4e487b71000000000000000000000000000000000000000000000000000000005f52601160045260245ffd5b5f61042b82610281565b915061043683610281565b925082820261044481610281565b9150828204841483151761045b5761045a6103f4565b5b5092915050565b5f82825260208201905092915050565b7f416d6f756e742073656e7420697320746f206c6f7721000000000000000000005f82015250565b5f6104a6601683610462565b91506104b182610472565b602082019050919050565b5f6020820190508181035f8301526104d38161049a565b9050919050565b7f4e487b71000000000000000000000000000000000000000000000000000000005f52601260045260245ffd5b5f61051182610281565b915061051c83610281565b92508261052c5761052b6104da565b5b82820490509291505056fea26469706673582212206fc86ba8aab5475e03401825b03038d55cb1461a27de74c7a6ab783c5ec1d07164736f6c634300081c0033",
					"opcodes": "PUSH1 0x80 PUSH1 0x40 MSTORE PUSH8 0x4563918244F40000 PUSH0 SSTORE CALLVALUE DUP1 ISZERO PUSH1 0x19 JUMPI PUSH0 PUSH0 REVERT JUMPDEST POP PUSH2 0x56D DUP1 PUSH2 0x27 PUSH0 CODECOPY PUSH0 RETURN INVALID PUSH1 0x80 PUSH1 0x40 MSTORE PUSH1 0x4 CALLDATASIZE LT PUSH2 0x3E JUMPI PUSH0 CALLDATALOAD PUSH1 0xE0 SHR DUP1 PUSH4 0xD8E6E2C EQ PUSH2 0x42 JUMPI DUP1 PUSH4 0x51B80E41 EQ PUSH2 0x6C JUMPI DUP1 PUSH4 0x8E15F473 EQ PUSH2 0x96 JUMPI DUP1 PUSH4 0xB60D4288 EQ PUSH2 0xC0 JUMPI JUMPDEST PUSH0 PUSH0 REVERT JUMPDEST CALLVALUE DUP1 ISZERO PUSH2 0x4D JUMPI PUSH0 PUSH0 REVERT JUMPDEST POP PUSH2 0x56 PUSH2 0xCA JUMP JUMPDEST PUSH1 0x40 MLOAD PUSH2 0x63 SWAP2 SWAP1 PUSH2 0x299 JUMP JUMPDEST PUSH1 0x40 MLOAD DUP1 SWAP2 SUB SWAP1 RETURN JUMPDEST CALLVALUE DUP1 ISZERO PUSH2 0x77 JUMPI PUSH0 PUSH0 REVERT JUMPDEST POP PUSH2 0x80 PUSH2 0x151 JUMP JUMPDEST PUSH1 0x40 MLOAD PUSH2 0x8D SWAP2 SWAP1 PUSH2 0x299 JUMP JUMPDEST PUSH1 0x40 MLOAD DUP1 SWAP2 SUB SWAP1 RETURN JUMPDEST CALLVALUE DUP1 ISZERO PUSH2 0xA1 JUMPI PUSH0 PUSH0 REVERT JUMPDEST POP PUSH2 0xAA PUSH2 0x156 JUMP JUMPDEST PUSH1 0x40 MLOAD PUSH2 0xB7 SWAP2 SWAP1 PUSH2 0x299 JUMP JUMPDEST PUSH1 0x40 MLOAD DUP1 SWAP2 SUB SWAP1 RETURN JUMPDEST PUSH2 0xC8 PUSH2 0x1FB JUMP JUMPDEST STOP JUMPDEST PUSH0 PUSH20 0x694AA1769357215DE4FAC081BF1F309ADC325306 PUSH20 0xFFFFFFFFFFFFFFFFFFFFFFFFFFFFFFFFFFFFFFFF AND PUSH4 0x54FD4D50 PUSH1 0x40 MLOAD DUP2 PUSH4 0xFFFFFFFF AND PUSH1 0xE0 SHL DUP2 MSTORE PUSH1 0x4 ADD PUSH1 0x20 PUSH1 0x40 MLOAD DUP1 DUP4 SUB DUP2 DUP7 GAS STATICCALL ISZERO DUP1 ISZERO PUSH2 0x128 JUMPI RETURNDATASIZE PUSH0 PUSH0 RETURNDATACOPY RETURNDATASIZE PUSH0 REVERT JUMPDEST POP POP POP POP PUSH1 0x40 MLOAD RETURNDATASIZE PUSH1 0x1F NOT PUSH1 0x1F DUP3 ADD AND DUP3 ADD DUP1 PUSH1 0x40 MSTORE POP DUP2 ADD SWAP1 PUSH2 0x14C SWAP2 SWAP1 PUSH2 0x2E0 JUMP JUMPDEST SWAP1 POP SWAP1 JUMP JUMPDEST PUSH0 SLOAD DUP2 JUMP JUMPDEST PUSH0 PUSH0 PUSH20 0x694AA1769357215DE4FAC081BF1F309ADC325306 SWAP1 POP PUSH0 DUP2 PUSH20 0xFFFFFFFFFFFFFFFFFFFFFFFFFFFFFFFFFFFFFFFF AND PUSH4 0xFEAF968C PUSH1 0x40 MLOAD DUP2 PUSH4 0xFFFFFFFF AND PUSH1 0xE0 SHL DUP2 MSTORE PUSH1 0x4 ADD PUSH1 0xA0 PUSH1 0x40 MLOAD DUP1 DUP4 SUB DUP2 DUP7 GAS STATICCALL ISZERO DUP1 ISZERO PUSH2 0x1B9 JUMPI RETURNDATASIZE PUSH0 PUSH0 RETURNDATACOPY RETURNDATASIZE PUSH0 REVERT JUMPDEST POP POP POP POP PUSH1 0x40 MLOAD RETURNDATASIZE PUSH1 0x1F NOT PUSH1 0x1F DUP3 ADD AND DUP3 ADD DUP1 PUSH1 0x40 MSTORE POP DUP2 ADD SWAP1 PUSH2 0x1DD SWAP2 SWAP1 PUSH2 0x37D JUMP JUMPDEST POP POP POP SWAP2 POP POP PUSH5 0x2540BE400 DUP2 PUSH2 0x1F4 SWAP2 SWAP1 PUSH2 0x421 JUMP JUMPDEST SWAP3 POP POP POP SWAP1 JUMP JUMPDEST PUSH0 SLOAD PUSH2 0x206 CALLVALUE PUSH2 0x249 JUMP JUMPDEST LT ISZERO PUSH2 0x247 JUMPI PUSH1 0x40 MLOAD PUSH32 0x8C379A000000000000000000000000000000000000000000000000000000000 DUP2 MSTORE PUSH1 0x4 ADD PUSH2 0x23E SWAP1 PUSH2 0x4BC JUMP JUMPDEST PUSH1 0x40 MLOAD DUP1 SWAP2 SUB SWAP1 REVERT JUMPDEST JUMP JUMPDEST PUSH0 PUSH0 PUSH2 0x253 PUSH2 0x156 JUMP JUMPDEST SWAP1 POP PUSH0 PUSH8 0xDE0B6B3A7640000 DUP5 DUP4 PUSH2 0x26B SWAP2 SWAP1 PUSH2 0x421 JUMP JUMPDEST PUSH2 0x275 SWAP2 SWAP1 PUSH2 0x507 JUMP JUMPDEST SWAP1 POP DUP1 SWAP3 POP POP POP SWAP2 SWAP1 POP JUMP JUMPDEST PUSH0 DUP2 SWAP1 POP SWAP2 SWAP1 POP JUMP JUMPDEST PUSH2 0x293 DUP2 PUSH2 0x281 JUMP JUMPDEST DUP3 MSTORE POP POP JUMP JUMPDEST PUSH0 PUSH1 0x20 DUP3 ADD SWAP1 POP PUSH2 0x2AC PUSH0 DUP4 ADD DUP5 PUSH2 0x28A JUMP JUMPDEST SWAP3 SWAP2 POP POP JUMP JUMPDEST PUSH0 PUSH0 REVERT JUMPDEST PUSH2 0x2BF DUP2 PUSH2 0x281 JUMP JUMPDEST DUP2 EQ PUSH2 0x2C9 JUMPI PUSH0 PUSH0 REVERT JUMPDEST POP JUMP JUMPDEST PUSH0 DUP2 MLOAD SWAP1 POP PUSH2 0x2DA DUP2 PUSH2 0x2B6 JUMP JUMPDEST SWAP3 SWAP2 POP POP JUMP JUMPDEST PUSH0 PUSH1 0x20 DUP3 DUP5 SUB SLT ISZERO PUSH2 0x2F5 JUMPI PUSH2 0x2F4 PUSH2 0x2B2 JUMP JUMPDEST JUMPDEST PUSH0 PUSH2 0x302 DUP5 DUP3 DUP6 ADD PUSH2 0x2CC JUMP JUMPDEST SWAP2 POP POP SWAP3 SWAP2 POP POP JUMP JUMPDEST PUSH0 PUSH10 0xFFFFFFFFFFFFFFFFFFFF DUP3 AND SWAP1 POP SWAP2 SWAP1 POP JUMP JUMPDEST PUSH2 0x329 DUP2 PUSH2 0x30B JUMP JUMPDEST DUP2 EQ PUSH2 0x333 JUMPI PUSH0 PUSH0 REVERT JUMPDEST POP JUMP JUMPDEST PUSH0 DUP2 MLOAD SWAP1 POP PUSH2 0x344 DUP2 PUSH2 0x320 JUMP JUMPDEST SWAP3 SWAP2 POP POP JUMP JUMPDEST PUSH0 DUP2 SWAP1 POP SWAP2 SWAP1 POP JUMP JUMPDEST PUSH2 0x35C DUP2 PUSH2 0x34A JUMP JUMPDEST DUP2 EQ PUSH2 0x366 JUMPI PUSH0 PUSH0 REVERT JUMPDEST POP JUMP JUMPDEST PUSH0 DUP2 MLOAD SWAP1 POP PUSH2 0x377 DUP2 PUSH2 0x353 JUMP JUMPDEST SWAP3 SWAP2 POP POP JUMP JUMPDEST PUSH0 PUSH0 PUSH0 PUSH0 PUSH0 PUSH1 0xA0 DUP7 DUP9 SUB SLT ISZERO PUSH2 0x396 JUMPI PUSH2 0x395 PUSH2 0x2B2 JUMP JUMPDEST JUMPDEST PUSH0 PUSH2 0x3A3 DUP9 DUP3 DUP10 ADD PUSH2 0x336 JUMP JUMPDEST SWAP6 POP POP PUSH1 0x20 PUSH2 0x3B4 DUP9 DUP3 DUP10 ADD PUSH2 0x369 JUMP JUMPDEST SWAP5 POP POP PUSH1 0x40 PUSH2 0x3C5 DUP9 DUP3 DUP10 ADD PUSH2 0x2CC JUMP JUMPDEST SWAP4 POP POP PUSH1 0x60 PUSH2 0x3D6 DUP9 DUP3 DUP10 ADD PUSH2 0x2CC JUMP JUMPDEST SWAP3 POP POP PUSH1 0x80 PUSH2 0x3E7 DUP9 DUP3 DUP10 ADD PUSH2 0x336 JUMP JUMPDEST SWAP2 POP POP SWAP3 SWAP6 POP SWAP3 SWAP6 SWAP1 SWAP4 POP JUMP JUMPDEST PUSH32 0x4E487B7100000000000000000000000000000000000000000000000000000000 PUSH0 MSTORE PUSH1 0x11 PUSH1 0x4 MSTORE PUSH1 0x24 PUSH0 REVERT JUMPDEST PUSH0 PUSH2 0x42B DUP3 PUSH2 0x281 JUMP JUMPDEST SWAP2 POP PUSH2 0x436 DUP4 PUSH2 0x281 JUMP JUMPDEST SWAP3 POP DUP3 DUP3 MUL PUSH2 0x444 DUP2 PUSH2 0x281 JUMP JUMPDEST SWAP2 POP DUP3 DUP3 DIV DUP5 EQ DUP4 ISZERO OR PUSH2 0x45B JUMPI PUSH2 0x45A PUSH2 0x3F4 JUMP JUMPDEST JUMPDEST POP SWAP3 SWAP2 POP POP JUMP JUMPDEST PUSH0 DUP3 DUP3 MSTORE PUSH1 0x20 DUP3 ADD SWAP1 POP SWAP3 SWAP2 POP POP JUMP JUMPDEST PUSH32 0x416D6F756E742073656E7420697320746F206C6F772100000000000000000000 PUSH0 DUP3 ADD MSTORE POP JUMP JUMPDEST PUSH0 PUSH2 0x4A6 PUSH1 0x16 DUP4 PUSH2 0x462 JUMP JUMPDEST SWAP2 POP PUSH2 0x4B1 DUP3 PUSH2 0x472 JUMP JUMPDEST PUSH1 0x20 DUP3 ADD SWAP1 POP SWAP2 SWAP1 POP JUMP JUMPDEST PUSH0 PUSH1 0x20 DUP3 ADD SWAP1 POP DUP2 DUP2 SUB PUSH0 DUP4 ADD MSTORE PUSH2 0x4D3 DUP2 PUSH2 0x49A JUMP JUMPDEST SWAP1 POP SWAP2 SWAP1 POP JUMP JUMPDEST PUSH32 0x4E487B7100000000000000000000000000000000000000000000000000000000 PUSH0 MSTORE PUSH1 0x12 PUSH1 0x4 MSTORE PUSH1 0x24 PUSH0 REVERT JUMPDEST PUSH0 PUSH2 0x511 DUP3 PUSH2 0x281 JUMP JUMPDEST SWAP2 POP PUSH2 0x51C DUP4 PUSH2 0x281 JUMP JUMPDEST SWAP3 POP DUP3 PUSH2 0x52C JUMPI PUSH2 0x52B PUSH2 0x4DA JUMP JUMPDEST JUMPDEST DUP3 DUP3 DIV SWAP1 POP SWAP3 SWAP2 POP POP JUMP INVALID LOG2 PUSH5 0x6970667358 0x22 SLT KECCAK256 PUSH16 0xC86BA8AAB5475E03401825B03038D55C 0xB1 CHAINID BYTE 0x27 0xDE PUSH21 0xC7A6AB783C5EC1D07164736F6C634300081C003300 "
				},
				"gasEstimates": {
					"creation": {
						"codeDepositCost": "277800",
						"executionCost": "22421",
						"totalCost": "300221"
					},
					"external": {
						"fund()": "infinite",
						"getLatestPrice()": "infinite",
						"getVersion()": "infinite",
						"minUsd()": "2424"
					},
					"internal": {
						"getConversionRate(uint256)": "infinite"
					}
				},
				"methodIdentifiers": {
					"fund()": "b60d4288",
					"getLatestPrice()": "8e15f473",
					"getVersion()": "0d8e6e2c",
					"minUsd()": "51b80e41"
				}
			},
			"storageLayout": {
				"storage": [
					{
						"astId": 54,
						"contract": "FundMe.sol:FundMe",
						"label": "minUsd",
						"offset": 0,
						"slot": "0",
						"type": "t_uint256"
					}
				],
				"types": {
					"t_uint256": {
						"encoding": "inplace",
						"label": "uint256",
						"numberOfBytes": "32"
					}
				}
			},
			"userdoc": {
				"kind": "user",
				"methods": {},
				"version": 1
			}
		}
	}
}